:103F2C0075F8FF759404E4F5937592087591057511
:103F3C0096E175950475B28075B140F5B475B31002
:103F4C0075CA10F5C9F5BA12549E12522712558033
:103F5C00758F10D2AFE49002C7F09002DBF0A3F0A3
:103F6C00A3121256000000009002C37401F09002DC
:103F7C00C2F0C2B7D293D2A6D2A5C2A7C2A0C20326
:103F8C001255471240EA12420D1253EC124CFF121A
:103F9C004C7C125403124C3912541A1247637FB8DA
:103FAC007E0B7D007C0012509BD2CCE490032FF052
:053FBC00124B0280F62B
:03005300024BEE6F
:104BEE00C0E0C0F0C083C082C0D075D000C000C08D
:104BFE0004C005C006C0079002B6E0FCA3E0FDA30A
:104C0E00E0FEA3E02401FFE43EFEE43DFDE43CFCB7
:104C1E009002B612124AD007D006D005D004D000AA
:0B4C2E00D0D0D082D083D0F0D0E03294
:0E270A0044030B0000000044030F0000000019
:10461A00E0F8A3E0F9A3E0FAA3E0FB900317E0FCBB
:10462A00A3E0FDA3E0FEA3E022E4FEFDFC9002E18C
:10463A00E0F8A3E0F9A3E0FAA3E0FBC30212062420
:10464A0001FFE43EFEE43DFDE43CFC02124A240183
:10465A00FFE43EFEE43DFDE43CFC02124AC39BFF3C
:10466A00EE9AFEED99FDEC98FC22E0F8A3E0F9A39E
:10467A00E0FAA3E0FB22FFE43EFEE43DFDE43C2237
:10511800EF700A124625FF90030B12124A90030BF8
:1051280012461A124667E47B01FAF9F8D3121206FE
:0751380050037F00227F01FC
:01513F00224D
:10514000EF700A124625FF90030F12124A90030FC8
:1051500012461A124667E47B64FAF9F8D312120673
:0751600050037F00227F01D4
:015167002225
:06509B0090025612124AB9
:1050A100124625FF90031312124A900313124674FD
:1050B100A3124628124667900256124674D3121262
:0350C1000650E7AF
:0150C40022C9
:10549E00538E7F5389F0758DF5758B34C28FD28EF6
:0354AE00D2AB225C
:03001B000232C0EE
:1032C000C0E0C0F0C083C082C0D075D000C000C0D4
:1032D00001C002C003C004C005C006C007124625D5
:1032E000900317124649900331E0D394004008E060
:1032F00014F0E07002D2A5E47FE87E03FDFC9002AA
:10330000BE12463A9002BE401E1212560000000045
:103310009002B6124628FFA312124A9002B6121269
:10332000560000000080091246289002BE1246494D
:103330009002C2E060030233E39002DD124628905F
:1033400002DD1246589002E11246289002E1124630
:10335000587F011246337005C2A60233E37F06127E
:1033600046337005D2A60233E3E47F171246347069
:1033700005C2930233E39002E51246282417124651
:10338000801246367047D2939002D9E0FEA3E0FF48
:10339000C39002DCE09F9002DBE09E500CA3E004AF
:1033A000F070069002DBE004F07F807E847D1E7C5E
:1033B000009002ED12463A502A9002ED124628245F
:1033C00001124680FC9002ED12124A80169002E92A
:1033D000124628FF124637400A9002E112125600A8
:1033E000000000D007D006D005D004D003D002D012
:0E33F00001D000D0D0D082D083D0F0D0E03217
:0427180041031B005E
:105227005393FD43940253BAFD43AC5075D5B875FB
:10523700D4FF43D10AE490031EF090031C740AF0D4
:0452470043AF082247
:0300860002551E02
:0F551E0090031EE070FA90031E7401F08FAD220F
:03008B0002397EB9
:0F397E00C0E0C0F0C083C082C0D075D000C007C9
:10398D00E5AC30E10853ACFD90031EE4F0E5AC204E
:10399D00E003023A5753ACFEAFAD90031CE014B4F4
:1039AD000A004003023A4C9039C275F003A4C58356
:1039BD0025F0C58373023A44023A3C023A3C023A7E
:1039CD003C023A27023A1D023A13023A090239EB38
:1039DD000239E0EF90031CB4AA0280568064EF24F4
:1039ED008E600B14701190031B74FFF0800990030F
:1039FD001BE4F090031DF090031C8036900323EF21
:103A0D00F090031C802C900324EFF090031C802277
:103A1D00900325EFF090031C8018900326EFF09093
:103A2D00031CE014F090031BE090031DF0801B902D
:103A3D00031CE014F0801390031C740AF0800B90AB
:0A3A4D00031C740AF090031BE4F060
:0D3A5700D007D0D0D082D083D0F0D0E032A4
:10531600D294D295000000000000000000000000BA
:0F532600C2940000000000000000000000002200
:1052B400D295C2940000000000000000000000002D
:1052C400D295D2940000000000000000000000000D
:0152D40022B7
:08005600EA25E0FFEF24A0FF02
:10005E00C295E4FEEF5480C4131313540124FF928F
:10006E0094EF25E0FF000000D295000000C295003D
:07007E0000000EEEB408DDE6
:010085002258
:08507000125078AF0312005E3C
:10507800E4FFD29400000000D295000000003094B4
:105088000D0FEFD394FA40F61252B47F0122C29565
:025098007F0097
:01509A0022F3
:104E7900E4900255F0FEC295000000000000D295B2
:104E890000000000900255E0FD25E0F0309403E0B9
:104E990004F000000000000EEEB408DAEF7005120D
:0C4EA900536D8003125352900255E0FF3D
:014EB50022DA
:10535200C295C294000000000000000000D2950037
:0B5362000000000000000000C29522C7
:10536D00C295D294000000000000000000D295000C
:0B537D000000000000000000C29522AC
:0451DD00AB07AA066C
:1051E100E4FC1253161200561250701253167FA18E
:1051F10012005E125078E4FF124E79AC071252B4DD
:01520100228A
:10520200AB07AA06AC05125316120056125070AF25
:105212000412005E1250781252B47F0A7E007D00A2
:055222007C0002509B1E
:1045310048012F0047BFC480478FCD004759C000B5
:104541004726600047002E0046C73200469BEC001C
:104551004675F80046436000461C400045FB880054
:1045610045CBC00045A608004588100045604000C5
:104571004539D000451AC0004501800044D9C0002A
:1045810044B80000449C2000448520004463C000DE
:104591004443C0004428C0004412400043FE0000D0
:0845A10043DD800043C200006D
:104A0B00900260E0F8A3E0F9A3E0FAA3E0FB22E058
:104A1B00FCA3E0FDA3E0FEA3E0FF22900256E0FE24
:104A2B00A3E0222431F58274453EF5832212124A0B
:104A3B00E4FFFE7DA07C4022120CDA7B007AC07969
:104A4B007F7844020DE353BCDFAFBDEFADBEFCE49A
:034A5B00020EF256
:0755800075DE2F75BC8022CF
:102DB70053BC7F000075BC800000EF244042BC007C
:102DC70000E5BC30E5FB124A5190025C124A38908C
:102DD700025C124A0E124A4390026012124A7F6640
:102DE7007E667D967C40124A0B120E80600F400D66
:102DF70090025812125642F9CCCD022F817F9A7E4B
:102E0700997D997C3E124A0B120E80500D90025804
:102E170012125642F9999A022F81124A0B124A3B13
:102E2700120BE57B007A40791C7846120DE3AB075D
:102E3700AA06A905A804900260124A1A120DE39087
:102E4700026412124A7F007E2F7D017C4890026443
:102E5700124A0E120E80400D9002581212560000B0
:102E67000000022F817F007EC07D637C4490026456
:102E7700124A0E120E806002500D9002581212561E
:102E870042E60000022F81E4900256F0A3F0124AB6
:102E970026FFC39418EE94005037EF7802C333CE61
:102EA70033CED8F9124A2E12122A90025C12124A15
:102EB70090025C124A1A900264124A0E120E805057
:102EC70010900257E004F07006900256E004F0807C
:102ED700BD124A267802C333CE33CED8F9124A2E12
:102EE70012123A900264124A1A120BE5E4FBFA79BD
:102EF700A07840120CDAC004C005C006C007124A09
:102F0700267802C333CE33CED8F9124A2E12123A9C
:102F1700C000C001C002C003124A267802C333CEE4
:102F270033CED8F92435F58274453EF58312122A3B
:102F3700D003D002D001D000120BE5A804A905AA3E
:102F470006AB07D007D006D005D004120DE3C004A6
:102F5700C005C006C007124A26FF7C007D05121077
:102F670026AC06AD07E4120EF2D003D002D001D092
:102F770000120BE990025812124A00900258124AA6
:012F87001A2F
:012F88002226
:1050EF0053BC7F000075BC800000EF244042BC0021
:1050FF0000E5BC30E5FB124A51900255124A389038
:08510F000255124A0E124A4338
:015117002275
:104B0200E490031DF090032FE0B4080050F2904BA4
:104B120017F8282873024B34024B02024B3E024B19
:104B22002F024B43024B48024B4D024B3912008E6F
:104B320080CE121F6B80C912220180C412313A80CA
:104B4200BF122F8980BA1233FE80B5122BD680B0E5
:104EB6004C4F4144494E4720002E202020202020E0
:104EC60000202E202020200020202E202020002020
:104ED60020202E202000202020202E2000202020F0
:0D4EE60020202E0001000004FF0000031F2B
:04271C004103350040
:1044B7009002A67401F090024EE02440FE90024D57
:1044C700E034009002A7F0A3CEF090024FE0FFA3E4
:1044D700E09002A9CFF0EFA3F0A374FFF0A322FFAF
:1044E700FE7D20900249E0F8A3E0F9A3E0FAA3E0FB
:1044F700FB22900249E0FCA3E0FDA3E0FEA3E0FF5E
:10450700120F2B900251EEF0A3EFF022F0A3E4F08C
:10451700A3740AF022C2A59003317450F0229002CE
:0A45270058F0A304F0A37403F0227F
:0E1F6B007F01125388900335E0600302216F5E
:101F790090024DF0A3740AF0A37403F0A37411F056
:101F8900E4900244F0900253F0A3F09002A60412E8
:101F99004513A37403F074111244DE744EF0A37454
:101FA900B6F07B08E4FDFF1240561221F51244F900
:101FB900E47C401244E6120E8040030221617FFA5C
:101FC9001221EB1221F5900253E07004A3E0645052
:101FD9007008124525E4A3F08021900253E0FEA386
:101FE900E0FFD39450EE94004043EF94F0EE940058
:101FF900503BE4124525A37401F0E47C411244E608
:10200900120CDA120F2B90025CEEF0A3EFF09002A3
:1020190051E0FFA3E090025ECFF0A3EF1245131247
:102029004514E4FB7D017F01121640802190025383
:10203900E07004A3E064F07015125474C2CC124528
:102049001C7FF47E017D007C0012509B80F01244BD
:10205900F9900244E004F0C3900254E094F0900235
:1020690053E09400500CA3E004F07006900253E092
:1020790004F0900244E0B4010C1244B7744EF0A38A
:1020890074BF0220E8900244E0B4020C1244B77411
:102099004EF0A374C70220E8900244E0B4030C1286
:1020A90044B7744EF0A374CE0220E8900244E0B421
:1020B900040B1244B7744EF0A374D58022900244E5
:1020C900E0B4050B1244B7744EF0A374DC80109091
:1020D9000244E0B406151244B7744EF0A374E3F059
:1020E9007B06E4FDFF124056021FB9900244E064EA
:1020F900076003021FB990024DE0FEA3E0FF2440F0
:10210900FDE43EFC1244F2EF2470FFE43E9002A08D
:10211900F0A3EFF0900250E02410FE90024FE0345B
:10212900009002A2F0A3CEF090024EE02440FE906F
:10213900024DE034009002A4F0A3CEF090024FE0EB
:10214900FFA3E09002A6CFF0A3EFF07F0112429C1B
:10215900E4900244F0021FB97F0112538812451C12
:062169009003357401F043
:10216F00900245121256000000007F011221EB90E1
:10217F00031DE06026124DBF904EEAE493FF7BFFF4
:10218F007A4E79EB123E8DEF14700B12451C9003B3
:10219F002F7403F0803DE490031DF0E47F607EEA2E
:1021AF00FDFC9002451244EDC3121206502190021D
:1021BF0045E0FCA3E0FDA3E0FEA3E02401FFE43E25
:1021CF00FEE43DFDE43CFC90024512124A809BC2A6
:0B21DF00CC80979003307402F0D2CC4B
:1021EA00227E007D007C0012509B22E4FF1250EFF9
:0721FA0090024912124A2273
:0755870056312E30002A000E
:102720004101D30E607001D401B60204015801A921
:1027300002060254015801A9025602A3015801A938
:1027400002A502F2015801A902F4034A015801A9A5
:1027500001B6020401B201FE0206025401B201FEFA
:10276000025602A301B201FE02A502F201B201FE6D
:1027700002F4034A01B201FE01F4030B00FE01481A
:102780000206026C0207024A00000001000000017C
:08279000029102FC0207024A5B
:1047CD00C2A59003317450F074452FF582E4340284
:1047DD00F58322900244E0FFC3940622E490024543
:1047ED00F0A3F0A3F0A3F0A3F0A3F022C2A59003D1
:1047FD00317450F02290024CE0FBA3E0FAA3E0F9F3
:10480D0022900001020FC5900002020FC590000317
:10481D00020FC5900004020FC5900005020FC5A33D
:07482D00F0A37401F0A322C7
:10313A007F1C1253881247E9900244F09002A604B9
:10314A00F0A3E4F0A3740AF0A37403F0A3740FF0DD
:10315A00A374FFF0A37455F0A37487F07B04E4FD15
:10316A00FF12405690031DE060FA124DBF9001D342
:10317A00E0FF7B017A0179D4123E8DEF14B40E0080
:10318A0040030232B190319D75F003A4C58325F046
:10319A00C583730231C70231D70231E70231F70220
:1031AA003207023217023227023236023242023222
:1031BA004E02326002326C02327902329E1247E0CB
:1031CA0040030232B11247CD74010232571247E06E
:1031DA0040030232B11247CD74020232571247E05D
:1031EA0040030232B11247CD74030232571247E04C
:1031FA0040030232B11247CD74040232571247E03B
:10320A0040030232B11247CD74050232571247E029
:10321A0040030232B11247CD74060232571247E018
:10322A0040030232B11247CD740780211247E050A1
:10323A00761247CD740880151247E0506A1247CDBE
:10324A00740980091247E0505E1247CDE4F09002FB
:10325A0044E004F080371247F91247E9900244F03B
:10326A00802C1247F9900330E090032FF08040122F
:10327A0047F9900244E0FF24451247D8E4F0EFD31F
:10328A0094004006900244E014F0900244E0FF12D9
:10329A003C9880131247F9900244E0FF7B017A02BE
:1032AA0079451235318008E490031DF002316E90A1
:0532BA0003307402F076
:0132BF0022EC
:053C980090024FEFF067
:103C9D00A37402F0749412482C7411F0A37414F0F0
:103CAD009002A07403F0740B12482C744812482D26
:103CBD0074F4F0A3E4F0A374FEF0FB7A007DF47CC1
:103CCD00017F1C12429C90024FE0FFD39400406C88
:103CDD00EFD394065066E4900255F090024FE0FF4A
:103CED00900255E0C39F50549002A67404F09002C8
:103CFD0050E0FFA3E09002A7CFF0A3EFF0900252A7
:103D0D00E0FFA3E09002A9CFF0A3EFF0A374FFF0C2
:103D1D00A37455F0A3748CF07B017DFF7FFF1240DF
:103D2D0056900254E0FFC3900251E09FF090025074
:0C3D3D00E09400F0900255E004F0809F3C
:013D49002257
:1035310090024CEBF0A3EAF0A3E9F090024BEFF01C
:103541006406600302361DA3124805120FACFE6427
:1035510001703612480E6407702F1248146401700E
:103561002812481A640270211248206401701A124C
:103571004826B402149002C3E0B40105E4F0023518
:10358100E69002C37401F0805CEE6401702612487B
:103591000E6405701F124814701A12481AB40814E8
:1035A100124820B4020E124826B4040890032F7466
:1035B10006023617120FAC6401703112480E640214
:1035C100702A1248146403702312481A6403701C91
:1035D100124820B40216124826B40110300304C266
:1035E100038002D203E490032FF0FF22120FAC6498
:1035F10001702912480E64057022124814701D12C0
:10360100481AB40215124820B4020F124826B40415
:103611000990032F7407F07F00228000124802E412
:10362100120FF2124802900001E4121004900002FD
:10363100E4121004900003E4121004900004E41258
:103641001004900005E4121004E490024BF0FF1204
:053651003C987F0122FE
:104D80005245434F52442E2E2E00464C4F573A0068
:104D90005741524E494E473A004F4E004F4646004B
:104DA00056414C55453A00434F4E5354414E543AA8
:0F4DB0000054454D503A00494E534552543A0075
:1027980041011A1760B8011B001E0096006400D2A0
:1027A800017C01D1006400D2001E009600E60145BC
:1027B800017C01D100E60145001E009600F001AE43
:1027C800017C01D100F001AE001E009601E002304C
:1027D800004B01AE026C02B701E602B200AC00F594
:1027E800021F02C701130152026202DF017E01B813
:1027F800028502F801E0022102350316023F028138
:1028080003AC04AA006400A503CA049C00D3010415
:1028180003E304E7013C017503F504FB01A201E5AC
:10282800041204A1020B024A03A7041A02D3031FCD
:10283800041C048F02D3031F049204FF02D3031F56
:10284800036804FF0000004301D5026C02D3031F94
:103656009002EDE0FCA3E0FDA3E0FEA3E0FF9002F4
:103666004E229002A67401F0A3E4F0740AA3F0A31C
:10367600E4F0A322C2A59003317450F0229002A672
:103686007401F0A3E4F07496A3F0A3E4F0A32290EF
:103696000244E0FF74019002A0F074C1A3F0A37489
:1036A60001F0A322F0A3F07464A3F0A3E4F0A374E2
:1036B6000AF0A374FFF0A3229002A0E4F0A3748C96
:1036C600F0A37402F07426A3F0A3E4F0A322E0F8BA
:1036D600A3E0F9A3E0FAA3E0FBC3021206F0A37489
:1036E6008AF0A3E4F074B5A3F0A3E4F0A322F0A358
:1036F600E4F074D6A3F0A3E4F0A322742BF0A3E4C1
:10370600F0A3744CF0A3E4F022900244E0FF900290
:10371600A022744DF0A37499F07B0222744DF0A39D
:10372600749CF07B032290024CE0FCA3E0FD22CDCA
:10373600F0A3EDF0E4A3F0A3F0A3F0229002C2E020
:103746006401227482F0A3E4F02275F003A4C58319
:1037560025F0C58322900247E004F0E0D394C82206
:1037660074A0F0A3E4F0A3744C227461F0FB7A0118
:013776002230
:10008E00D200D2019002457464F09002C27401F065
:10009E00E49002DBF0A3F012365612124A9002C719
:1000AE00E0FF124F6D9002C7E0FF1250C59002C7DD
:1000BE00E0FF124898900330E0640560089002C794
:1000CE00E0FF12524B12526F9002C7E02402FF90D3
:1000DE000244F0125388124BA1E4FF123777E4FF6B
:1000EE00125044E4FF12001EE4FF124FE1E4FF122F
:1000FE003BE4A200E433FF124E3BA201E433FF12B5
:10010E0051B79002C3E0701E9002A604F0A3E4F073
:10011E00A3740AF0A37403F0A3740F1236B7744DD0
:10012E00F07480120B5A124FA91243B6900247EF89
:10013E00F0120BA8A3EFF012004FEF24FF92022053
:10014E0003030202E01236681236B5744DF0748A5B
:10015E00120B7DE4FF124B52123668741A1236B728
:10016E00120B229002AFE09002A6701404F0A3E4EA
:10017E00F0744A123673741A1236B7123718801387
:10018E007401F0A3E4F0744A12368E741A1236B764
:10019E00123722120B99123668742A1236B7120BC6
:1001AE0049900244E0FFE4900258F0A304F0A374D7
:1001BE0003F0E4A3F09002B0E0FDA3E090025C1225
:1001CE003735743A1236CD742AF07BF87D0112164B
:1001DE0040123668743A1236B7744DF074A7120B8B
:1001EE005AE490027DF0A304F09002B2E0FEA3E088
:1001FE00FFE4FCFD90027F12124A9002837404F019
:10020E00A3E4F074521236ED743AF0900244E0FF1B
:10021E007BF87D011229761236831236B5744DF0B5
:10022E0074B1120B7D12372CE4FF1249B4123683CF
:10023E00741A1236B7120B229002F1E09002A670D9
:10024E000E041236F4741A1236B7123718800D7463
:10025E00011236F4741A1236B7123722120B991293
:10026E003683742A1236B7120B49900244E0FF907F
:10027E0002577401F0E4A3F09002F2E0FDA3E090C7
:10028E00025912373574C61236FA742AF0E4FB7D21
:10029E00F81219709002A67401F0A3F0742C1236A5
:1002AE00AF744DF0A374B7F07B07E4FD7FF81240F6
:1002BE00569002F1E09002A67009041236AA123787
:1002CE0018800874011236AA123722E4FD7FF81244
:1002DE004056D2B7E4900248F0A3F090031DE070B0
:1002EE00030206C9900248E07002A3E06003020612
:1002FE00C9124DBF90011AE0FF7B017A01791B12E2
:10030E003E8DEF14B4170040030207FE9003211236
:10031E003750730203660203950203D302040602EA
:10032E00043802047B0204C00205030205280205FC
:10033E004802056502058202059F0205BC0205D929
:10034E000205F602061302062F02065102066C0281
:10035E00068202068D0206A89002C4E0D3940140E4
:10036E0023300120123742701B9002A01236E31286
:10037E0037087476120A889002C4E014120BBD740A
:10038E00010204F302068B9002C8E0FF9002C4E063
:10039E00C39F502E30012B12374270269002A004BC
:1003AE00F0A374C1F0A3E4F074B51236A21237496B
:1003BE007476120A9F9002C4E004120BBD740202FE
:1003CE0004F302068B9002C5E0D39401402730015E
:1003DE0024123742701F9002A0F0A3748A1236A323
:1003EE0012370174ED120A889002C5E014120BC781
:1003FE0074030204F302068B9002C5E0C3941250FC
:10040E0026300123123742701E0412369C742B12B2
:10041E0036A312374974ED120A9F9002C5E00412FA
:10042E000BC774040204F302068BD39002DAE09435
:10043E00649002D9E09400403130012E9002A0E485
:10044E00F0A3748A1236A31237661236A37461F0C3
:10045E007D4C120ACC9002DAE0249CF09002D9E096
:10046E0034FF120BD174050204F302068BC3900203
:10047E00DAE094109002D9E0942750333001301214
:10048E00369A74A01236A374821236A31237707D78
:10049E00827C017F0C12429C12367A9002DAE024A2
:1004AE0064F09002D9E03400120BD174068036024B
:1004BE00068BD39002DCE094009002DBE0940040C7
:1004CE003130012E1236BE74461236A374D6F07D2C
:1004DE0046120ACCE49002DBF0A3F07F01124FE14A
:1004EE009001197407F0900248E4F0A37478F002BA
:1004FE0007FE02068B30011F9002C2E0B4011812F3
:10050E00367A200006D200C2A08004C200D2A0A279
:10051E0000E433FF124E3B02068B9002C7E06017D9
:10052E003001149002C2E0B4010D12367AE490024A
:10053E00C7120B89124DFD02068B9002C7E06401B3
:10054E00601230010F9002C2E0B4010812367A74C4
:10055E0001120AB602068B9002C7E06402601230E6
:10056E00010F9002C2E0B4010812367A7402120A28
:10057E00B602068B9002C7E06403601230010F9042
:10058E0002C2E0B4010812367A7403120ADF0206C0
:10059E008B9002C7E06404601230010F9002C2E03B
:1005AE00B4010812367A7404120ADF02068B900226
:1005BE00C7E06405601230010F9002C2E0B401087A
:1005CE0012367A7405120AF502068B9002C7E064A1
:1005DE0006601230010F9002C2E0B4010812367AA2
:1005EE007406120AF502068B9002C7E064076012C9
:1005FE0030010F9002C2E0B4010812367A7407126D
:10060E000B3302068B9002C7E06408601230010FB4
:10061E009002C2E0B4010812367A7408120B3380CD
:10062E005C9002C7E0640960183001159002C2E0C8
:10063E00B4010E12367A9002C77409120B89124D4C
:10064E00FD803A3000163001139002C2E0B4010C66
:10065E0012367A90032F7402F0020A7E801F123631
:10066E007A300104C2018002D201A201E433FF12EA
:10067E0051B7803F30000630010302096D803430DF
:10068E0000163001139002C2E0B4010C12367A90BB
:10069E00032F7404F0020A7E801930001630011305
:1006AE009002C2E0B4010C12367A90032F7405F05A
:1006BE00020A7EE490031DF00207FE90031DE06027
:1006CE00030207FE900248E07002A3E060030207F7
:1006DE00FE900119E014B4070040030207F99006DA
:1006EE00F31237507302070802072502074E02075E
:1006FE00730207950207BB0207DF9002C3E0700882
:10070E009002C7E0FF12550D12370FE41236E312B6
:10071E003708A3747680489002C3E070089002C731
:10072E00E0FF12550D12370F7401F0A374C1F0A340
:10073E00E4F0A374B51236A3123749A37476804140
:10074E009002C3E070089002C7E0FF1254D7123730
:10075E000FE4F0A3748A1236A3123701A374EDF0DE
:10076E00FB7A0080449002C3E070089002C7E0FF5D
:10077E001254D7123695742B1236A3123749A3741E
:10078E00EDF0FB7A0080449002C3E070089002C73F
:10079E00E0FF12516812370FE4F0A3748A1236A3E9
:1007AE001237661236A31237707D4C80399002C311
:1007BE00E070089002C7E0FF12516812369574A0DF
:1007CE001236A374821236A31237707D827C01809A
:1007DE0017900244E0FF1236BE74461236A374D64A
:1007EE00F0FB7A017D467C0012429CE4900119F0E8
:1007FE007F01125118EF701FFF125118D39002494A
:10080E00E09400900248E09400400CA3E024FFF036
:10081E00900248E034FFF07F01125140EF60030276
:10082E000978FF125140900245E0D394004003E056
:10083E0014F0124FA93003057F01124B5212004FD4
:10084E00EF24FF92023002269002F7E0702012365B
:10085E007A120B0B12553A1236561236D460061215
:10086E003656120BA190031DE060FA02096D90023C
:10087E00B0E0FEA3E0FFD39002B5E09F9002B4E09B
:10088E009E50489002AFE07042900245E0703C12DC
:10089E00367A120B0B12552D1236561236D46006BE
:1008AE00123656120BA1E4FF124B5290031DE0704C
:1008BE001712375B400D124FA97F01124B52E49075
:1008CE000247F0120BB180E302096D120BA8A3EFE1
:1008DE00F030030812372C7F011249B49002F2E077
:1008EE00FEA3E0FFC390024DE09F90024CE09E40BD
:1008FE00799002F1E0707312367A120B6690024C08
:10090E00E0B4040AA3E0B4E1051253A280149002ED
:10091E004CE0B4040AA3E0B4E0051254FB800312C9
:10092E0053351236561236D46006123656120BDB7B
:10093E0012372CE4FF1249B490031DE070211237D8
:10094E005B401712519090024CEEF0FCA3EFF0FDBD
:10095E007F011249B4E4900247F0120BB180D91214
:10096E00367AE490032FF0020A7E1243B6900247C5
:10097E00EFF0900246E06F7003020A11A3E09002BE
:10098E0046F0706720007C9002DBE0FFA3E090024F
:10099E004ACFF0A3EFF09002E112125600000000D1
:1009AE009002C5E0FD7C007E037FE8121038E4FC67
:1009BE00FD9002E912124A9002C7E09002C4B403FD
:1009CE000AE024D3F582E434028008E024C9F582DB
:1009DE00E43402F583E0FFE4FCFDFE9002E5121222
:1009EE004AE49002C2F012367A80189002C2740164
:1009FE00F0D2A6D2931236561236D460061236565E
:100A0E00120BDB9002C2E060030202E97F01123B8F
:100A1E00E49002DBE0FEA3E0FF90024AE06E70037A
:100A2E00A3E06F70030202E990024AEEF0A3EFF02A
:100A3E007F01124FE19002D9E0FEA3E0FFC39002C6
:100A4E00DCE09F9002DBE09E50030202E912367A50
:100A5E00120B661254311236561236D46009123603
:100A6E005612124A124AB190031DE060FA12367AFB
:090A7E009003307403F0C2B700CC
:100A870022A3F0FB7A007D4C7C007F0C12429CC2B3
:100A9700A59003317450F022A3F0FB7A007D827C8D
:100AA700017F0C12429CC2A59003317450F0229032
:100AB70002C7F0FF1252F612526FE49002DBF0A366
:100AC700F0124DFD22FB7A017C007F0C12429CC282
:100AD700A59003317450F0229002C7F0FF1252F62E
:100AE70012526FE49002DBF0A3F0124DFD22900248
:100AF700C7F0FF1252F612526FE49002DBF0A3F038
:100B0700124DFD229002C27401F0D2A6D293C2A068
:100B1700D200A200E433FF124E3B22744DF0A374BF
:100B270090F07B08E4FD7FF8124056229002C7F050
:100B3700FF1252F612526FE49002DBF0A3F0124D4F
:100B4700FD22744DF0A374A0F07B06E4FD7FF8123C
:100B5700405622A3F07B09E4FD7FF812405622900D
:100B670002C27401F0D2A6D293C2A0D200A200E4BE
:100B770033FF124E3B22A3F07B05E4FD7FF81240C2
:100B87005622F0FF1252F612526FE49002DBF0A3E6
:100B9700F022E4FD7FF81240562212124A124AB19F
:100BA7002212519090024CEEF0227F017E007D00D0
:100BB7007C0012509B22F07F011237779001192297
:100BC700F07F0112504490011922F07F0112001E9C
:0B0BD7009001192212124A124AB122AA
:1045A9000E01DB0294008C00C801DB029400FA01C1
:1045B9003601DB0294016801A401DB029401D602F1
:1045C9001201DB0294023A0280042904C4008C001F
:1045D900C8042904C400FA0136042904C401680185
:1045E900A4042904C401D60212042904C4023A020B
:1045F9008003A7041A02D3031F041C048F02D303E8
:104609001F049204FF02D3031F01D40367000000B3
:01461900435D
:09557700C2A59003317450F0222A
:102F8900D2009002C7E0240DFF12538890031DE080
:102F990060FA124DBF9045A9E493FF7BFF7A45790A
:102FA900AA123E8DEF14B40E00400302312B902F6C
:102FB900C575F003A4C58325F0C58373022FEF02FD
:102FC900300302301D02303402304B0230650230CA
:102FD9007F0230990230B20230CB0230E30230F383
:102FE9000231090231189002C7E0605330005012D3
:102FF9005577E49002C7F00231339002C7E06401CB
:10300900600F30000C1255779002C77401F002313D
:10301900330231169002C7E06402600C30000912D5
:1030290055779002C70230EC0231169002C7E0646E
:1030390003600C3000091255779002C70231210252
:1030490031169002C7E06404600F30000C12557706
:103059009002C77404F00231330231169002C7E0BE
:103069006405600F30000C1255779002C77405F0A3
:103079000231330231169002C7E06406600F300056
:103089000C1255779002C77406F0023133023116DB
:103099009002C7E06407600F30000C125577900268
:1030A900C77407F002313380649002C7E064086096
:1030B9000F30000C1255779002C77408F0023133B3
:1030C900804B9002C7E06409600E30000B125577FF
:1030D9009002C77409F08052803330000B12557783
:1030E90090032F7402F08042802312557730000438
:1030F900C2008002D200A200E433FF1251B7801D42
:1031090030000A125577E490032FF0801D800E30AD
:10311900000B12557790032F7403F0800DE4900390
:103129001DF0E490031DF0022F959003307404F014
:013139002273
:102858004101182161080010005F00AF00B400FAC0
:10286800016D01B300B900FA005F00AF0109014F23
:10287800016D01B30109014F005F00AF016301A4BD
:10288800016D01B3016301A4005F00AF01B301F959
:10289800016D01B301B301F9005F00AF02080249FD
:1028A800016D01B30208024901D6023F00B400FAE3
:1028B80002E4032A00B900FA01D6023F0109014FD8
:1028C80002E4032A0109014F01D6023F016301A472
:1028D80002E4032A016301A401D6023F01B301F90E
:1028E80002E4032A01B301F901D6023F02080249B2
:1028F80002E4032A02080249034D039300B400FAD4
:102908000456049C00B900FA034D03930109014FD2
:102918000456049C0109014F034D0393016301A46C
:102928000456049C016301A4034D039301B301F908
:102938000456049C01B301F9034D039302080249AC
:102948000456049C02080249034D0393025D029950
:102958000456049C025D0299001E008C000F005072
:103DED00C2A59003317450F0900246E024D3F582C1
:103DFD00E43402F583E022C2A59003317450F090B3
:103E0D000246E024C9F582E43402F583E0229002F3
:103E1D00487403F0A374FAF0A3229002487401F0E1
:103E2D00A37418229002487402F0A3749222F583B1
:103E3D00E090025EFFE4FCFDFE02124AE0FFA3E00B
:103E4D00900264CFF0A3EFF0E4FB7D017F1D22E42F
:103E5D00900256F0A37403F0A3F0A3EDF022FFE45B
:103E6D0034FFC313EF13900246F0ED22E0FFA3E001
:103E7D00900262CFF0A3EFF022F0A37401F0A32221
:102BD6007F1D125388E4900245F0900245E0FFC342
:102BE600940A500DE4FD123A64900245E004F08028
:102BF600E9E4900245F0900245E0FFC39406500DCB
:102C0600E4FD123D4A900245E004F080E990031D80
:102C1600E060FA124DBF900118E0FF7B017A00795F
:102C260010123E8D900244EFF0D394005003022C14
:102C3600C7E0D394144003022CC7E0FD24FF123EE4
:102C46006B30E031E0FF700D74C92F123E12D39441
:102C56000140BA801A900246E0FF24C8F582E434A7
:102C660002F583E0FE74C92F123E12D39E409E12D7
:102C76003E0414803B900246E0FF6409701174C95B
:102C86002F123E12C394195084123E0404802190E0
:102C96000246E0FF24CAF582E43402F583E0FE74BE
:102CA600C92F123E12C39E4003022C13123E040487
:102CB600F07D01123A64900246E0FF1254B1022DF3
:102CC6006A900244E0FFD394145003022D78EFD3A8
:102CD60094204003022D78E0FD24EB123E6B30E099
:102CE60041E0FF701774D32F123DFBD394015003BC
:102CF600022C13123DED122D97022D6A900246E02A
:102D0600FF24D2F582E43402F583E0FE74D32F1259
:102D16003DFBD39E5003022C13123DED122D97025C
:102D26002D6A900246E0FF6405701674D32F123D9B
:102D3600FBC394194003022C13123DED122DA780FC
:102D460023900246E0FF24D4F582E43402F583E0C2
:102D5600FE74D32F123DFBC39E4003022C13123D7B
:102D6600ED122DA77F787E007D007C0012509B021D
:102D76002C13900244E064216003022C13C2A59038
:102D860003317450F0E490032FF09003307406F092
:102D96002214F07D01123D4A900246E0FF1254C40F
:102DA6002204F07D01123D4A900246E0FF1254C40F
:012DB60022FA
:053A6400900247EFF0A5
:103A6900B40A005078903A75F8282873023A9302FC
:103A79003A98023A9D023AA2023AA7023AAC023AAD
:103A8900B9023AC4023ACF023ADA123E2780171233
:103A99003E27801F123E278025123E27802B123E8B
:103AA900278031123E31F0A3E4F0A374CAF0802DCF
:103AB900123E31123E86741EF08022123E31123EB1
:103AC900867472F08017123E31123E8674C6F080F9
:103AD9000C123E31F0A37402F0A3741AF0123E5C8A
:103AE900900247E0FB123E1090025A123E417400C8
:103AF9002BF582E43400123E3B900248123E799045
:103B0900024A123E49121C8C900247E0FF123E10F5
:0D3B1900FE74002FF582E43400F583EEF019
:013B2600227C
:053D4A00900247EFF0BC
:103D4F0014601B14602414602D14603614603F241B
:103D5F00057045123E1BE4F0A374CAF0803A123E80
:103D6F001B7401F0A3741EF0802E123E1B7401F021
:103D7F00A37472F08022123E1B7401F0A374C6F07C
:103D8F008016123E1B7402F0A3741AF0800A123EC2
:103D9F001B7402F0A3746EF0123E5C900247E0FBBE
:103DAF00123DF9FFE4FCFDFE90025A12124A740A0A
:103DBF002BF582E43400123E3B900248123E79907C
:103DCF00024A123E49121C8C900247E0FF123DF945
:0D3DDF00FE740A2FF582E43400F583EEF047
:013DEC0022B4
:104CBE000802B7030E00FF0155033D039600FF01E6
:104CCE005503C4041D00FF015502B7030E019001E8
:104CDE00E9033D0396019001E903A7041A02D303E9
:104CEE001F041C048F02D3031F049204FF02D3037C
:014CFE001F96
:1052D500C2A59003317450F09002C6E02290032FCE
:1052E5007403F09002C3E022C2A59003317450F01C
:0152F5002296
:1033FE00D2009002C6E02417FF12538890031DE0FE
:10340E0060FA124DBF904CBEE493FF7BFF7A4C796D
:10341E00BF123E8DEF14B4080040030235229034E3
:10342E003A75F003A4C58325F0C5837302345202A6
:10343E00346D02348D0234AC0234C70234EA0234E5
:10344E00FA0235103000351252D56008E4F01250F1
:10345E001802351D1252E2600302352A0234DE30A4
:10346E00001A1252D5640160087401F012501880CF
:10347E000B1252E2600302352A0234DE02351D3091
:10348E0000191252D5640260087402F012501880AE
:10349E000A1252E2600302352A803502351D3000D1
:1034AE00161252D5640360087403F0125018800788
:1034BE001252E270678019805630001E1252D56487
:1034CE000460087404F0125018800F1252E2704C0F
:1034DE009002C7E0FF1254E98042803330000B1295
:1034EE0052ED90032F7402F0803280231252ED3091
:1034FE000004C2008002D200A200E433FF1251B7D2
:10350E00800D30000A1252EDE490032FF0800DE48E
:10351E0090031DF0E490031DF002340A9003307402
:02352E0005F0A6
:013530002278
:105018009002C6E02417FF9002A07404F0A374FF66
:10502800F0A37402F0A374D2F0E4A3F0A3F0A3F009
:0C503800A3F0FBFAFDFC12429C024BA10D
:1048FC004F4E004F4646000B001E008C000F005020
:10490C00014A020D00E6012700FF014A0154019AF9
:10491C00020D02530154019500FF014A01C2020825
:10492C00020D025301C20208014A020D0230027943
:10493C0002F303C000E6012702B202F80154019A07
:10494C0003BB04010154019502F303C001C2020828
:103B2700A3F0900247E0FFA3E09002A9CFF0A3EF34
:103B3700F0A374FFF0A322C2A59003317450F022C2
:103B4700E0FFA3E090025ECFF0EFA3F0A37401F0D3
:103B5700A3227401F07490A3F0A3E4F0A374F8F027
:103B6700229002A0F074F824209002A3F0E433908E
:103B770002A2F09002A422F0900258E4F0A374038A
:103B8700F0A3222408FEE034009002A7F022744834
:103B9700F0A374FCF07B0222E0FFA3E09002A7CF22
:103BA700F0227448F0A374FFF07B03227401F0A3A2
:103BB7007490F0A37402F0A37444F022749024303C
:103BC7009002A1F0E42274D6F0E4FB7D017F1E226F
:0D3BD700E0FFA3E090025CCFF0A3EFF0222E
:102201007F1E125388124A5EE4FF124EF3E4FF125E
:102211004F301246F712468AE4FF12495CE4FF127E
:10222100483402245390031DE0700302241D124D13
:10223100BF904903E493FF7BFF7A497904123E8DF5
:10224100EF14B40B0050DE90225675F003A4C58341
:1022510025F0C5837302227702228202229F022285
:10226100C10222F2022317022348022364022385BA
:102271000223A90223DC123B3EE490032FF0022447
:102281005B123B3E9002AFE0700404F08005E490E5
:1022910002AFF0124A5E1224627402022381D390CB
:1022A10002B1E094019002B0E094004041123B3E43
:1022B1009002B1E024FFF09002B0E034FFF0802002
:1022C100C39002B1E094649002B0E09400501F12F8
:1022D1003B3E9002B1E004F070069002B0E004F0E1
:1022E1007F01124EF31224627403F00222260223AC
:1022F100A7D39002B3E094019002B2E0940040139E
:10230100123B3E9002B3E024FFF09002B2E034FFB2
:10231100F080230223A7C39002B3E094AC9002B2F1
:10232100E09426501F123B3E9002B3E004F0700689
:102331009002B2E004F07F01124F30122471740553
:10234100F00222260223A7123B3E9002F7E070041E
:1023510004F08005E49002F7F01246F7122471743C
:1023610007801D123B3E9002F1E0700404F08005ED
:10237100E49002F1F012468A12248090024474081B
:10238100F0022415D39002F3E094019002F2E0945C
:10239100004013123B3E9002F3E024FFF09002F262
:1023A100E034FFF08022806CC39002F3E094E79068
:1023B10002F2E094035022123B3E9002F3E004F05B
:1023C10070069002F2E004F07F0112495C12248051
:1023D1009002447409F00222268039E4FFFEFDFCDC
:1023E1009002EDE0F8A3E0F9A3E0FAA3E0FBD31239
:1023F10012064020123B3E9002ED121256000000E0
:10240100007F01124834124AB17F787E007D007C42
:102411000012509BE490031DF0022226900244E03A
:1024210024FD601724FE601824FE601914601B143B
:10243100601D2407701C12555380171253BC801263
:10244100120003800D12556B800812555F80031234
:1024510053D4E4900244F00222269003307407F032
:10246100227F787E007D007C0012509B90024422E6
:102471007F787E007D007C0012509B900244227F79
:0B248100787E007D007C0012509B2242
:104A5E00900245123B59123BC33401123B68123B84
:104A6E0059FB7A007D907C017F1E12429C9002AF12
:104A7E00E09002A670167403F0900246E090024594
:104A8E00123B8ACE123B27123B9580107403F09096
:104A9E000245123B9FEF123B27123BA9E4FDFF128A
:024AAE00405670
:014AB00022E3
:104EF3009002457401F07488123B517466123B7E34
:104F0300F0A3EFF09002B0123BD7900327123B4778
:104F13007488123B527466123BCF1216409002B053
:0C4F2300E0FFA3E0900327CFF0A3EFF025
:014F2F00225F
:104F30009002457401F0A37482123B5274D6123B66
:104F40007E04F0A3EFF09002B2123BD79003291237
:104F50003B477482123B52123BCD1216409002B274
:0C4F6000E0FFA3E0900329CFF0A3EFF0E6
:014F6C002222
:1046F700900245123BB3123BC334019002A0F07401
:104707004424209002A3F0E43402123B76123BB318
:10471700FB7A027D907C017F1E12429C9002F7E09B
:104727009002A6701B7403F0900246E090024512B7
:104737003B8AA3CEF0900247123B2C123B95801583
:104747007403F0900245123B9FA3EFF090024712CB
:0B4757003B2C123BA9E4FDFF12405672
:014762002234
:10468A009002457403F0743F123B5E743F123BC5BF
:10469A003403123B687403F0A3743F123B5FFB7A46
:1046AA00007D3F7C037F1E12429C9002F1E0900243
:1046BA00A6701E7403F0900246E02408FE9002459C
:1046CA00123B8DA3CEF0900247123B2C123B9580F1
:1046DA00157403F0900245123B9FA3EFF090024736
:0C46EA00123B2C123BA9E4FDFF124056CD
:0146F60022A1
:10495C009002457403F0A3742F123B527466F090CE
:10496C0002577403F0A3EFF09002F2E0FFA3E09083
:10497C000259CFF0A3EFF090032BE0FFA3E09002DD
:10498C005BCFF0A3EF123B83742F123B527466F093
:10499C00E4FBFD7F1E1219709002F2E0FFA3E09081
:0749AC00032BCFF0A3EFF095
:0149B30022E1
:104834009002457403F0A3741F123B5274D6F09097
:104844000256123B827407F0A3EFF09002EDE0FCF5
:10485400A3E0FDA3E0FEA3E0FF90025A12124A90E7
:10486400032DE0FEA3E0FFE4FCFD90025E12124A79
:104874009002627403F0A3741F123B52123BCD12D8
:104884001C8C9002EDA3A3E0FFA3E090032DCFF0D6
:03489400A3EFF09F
:0148970022FE
:104D4000ED25E0FFEC338F82F5831210A3FF22FDE7
:104D5000EDFFEEF0A3EFF022E5F0F0A3EFF022FF7D
:104D6000E4F0A3EFF0E07F00FE22FFE0FCA3E0FD13
:104D7000C39FEC9E22E0FEA3E0FFD3ED9FEC9E22BA
:104DBF0090031DE0F47036900323E090031F124D13
:104DCF005F90031FF0A3EFF0900324E090031F12F6
:104DDF004D4F900325E0900321124D5F900321F07A
:0E4DEF00A3EFF0900326E0900321124D4F2217
:053E8D00900255EFF06A
:103E9200E4A3F0A3F0900255E0FF900257E0C39F25
:103EA2004003023F26E075F004A4FDACF0124D4140
:103EB200900258124D580DBD00010C124D40900257
:103EC2005C124D580DBD00010C124D4090025A1269
:103ED2004D580DBD00010C124D4090025E124D581E
:103EE200900258E0FEA3E090031F124D6A402C900E
:103EF200025C124D75502490025AE0FEA3E090033A
:103F020021124D6A401590025E124D75500D9002BD
:103F120057E0900256F0E004F08009900257E00466
:093F2200F0023E97900256E0FF08
:013F2B002273
:105292003000310032003300340035003600370070
:1052A200380039002E0056004100420020003A002A
:0252B2002D00CD
:1012870090029BE0FFA3E0FD90029EE09002A6F093
:1012970090029FE0FBA3E09002A7CBF0A3EBF090B6
:1012A70002A1E0FBA3E09002A9CBF0EBA3F0A374AB
:1012B700FFF0A3227B0AFAF9F890027FE0FCA3E093
:1012C700A3FDE0FEA3E0FF22AA04AB057D0AE0FE32
:1012D700A3E0FF7C00021038E4F07406A3F0A3E457
:1012E700F0A322E4F0740CA3F0A3E4F0A32290028D
:1012F7006AE0FEA3E0FF90026FE02FF090026EE03D
:101307003EF090025FE022E4F07414A3F0A3E4F04F
:10131700A322E4F0741CA3F0A3E4F0A32212116645
:10132700E47B0AFAF9F8021166E4F07428A3F0A343
:10133700E4F0A322121038E4FCFD90027F12124A57
:10134700900254E0FFA3E0FBA3E090027DF090023F
:1013570057E090027EF09002837401F0900269E0FA
:10136700FDA3E0900284CDF0A3EDF090026BE0FDC9
:10137700A3E0900286CDF0A3EDF07D0122E4FCFD11
:10138700FE90027F12124A9002837401F090026E5F
:10139700E0FFA3E0900284CFF0A3EFF0900270E0AB
:1013A700FFA3E0900286CFF0A3EFF022E4F07438B9
:1013B700A3F0A3E4F0A32290025CE0FBA3E0900279
:1013C7007DF090025EE090027EF022900255E0FFF1
:1013D700A3E0FDA3E09002A6F0900269E0FBA3E082
:1013E7009002A7CBF0A3EBF022900265E0FEA3E00A
:1013F700FF90026AE02FF0900269E03EF022E4F0ED
:101407007410A3F0A3E4F0A32290027212124A9080
:101417000272E4FFFEFDFCE0F8A3E0F9A3E0FAA303
:10142700E0FB2290026FE0FEA3E0FF7C007D6412E8
:1014370010387E007F0ACFCDCFCECCCE22E4F07419
:1014470020A3F0A3E4F0A322900270E0FCA3E0FD48
:1014570090025CE0FEA3E0FF1210387C007D0A02D8
:101467001038E024FFFFE434FFFE90026AE0FCA39B
:10147700E0FD02102675F00A84AFF0E075F00A84EB
:1014870022AE04AF05E4FCFD90027F12124A9002DF
:10149700837401F022E0FCA3E0FD2FFFEC3E9002F5
:1014A700A0F0A3EFF022EFF0A3EDF0A3EBF022758D
:1014B700F00A84FFE075F00A8422900264E0FF904E
:1014C7000263E022900262E0FF900261E022E4F012
:1014D7007408A3F0A3E4F0A322FFE0F8A3E02FFF32
:1014E700E83E9002A2F0A3EFF022A3E0FFEE900205
:1014F700A6F0A3EFF022E0FF900283E0900290C3F2
:101507009FFFE49400FEE022E0FFA3E09002A4CF57
:10151700F0A3EFF022E0FFA3E0900284CFF0A3EF67
:10152700F022900266E0FF900265E022900257E009
:10153700FBA3E090027DF022900265E0C313FEA3B7
:10154700E013FF90025EE02FFF90025D2290026899
:10155700E0FEA3E0FF90026DE02FF090026CE03E0A
:10156700F022C39FFBE49400FAE0C313FCA3E0134B
:10157700FDAF03AE022290026FE0FEA3E0FF7C0006
:1015870022900271E024FDFE900270E034FF900289
:10159700A9F02290025DE0FDA3E09002A6F022E40C
:1015A700F07430A3F0A3E4F0A322E4F0C374FA9F2D
:1015B70090026EF0E49E90026DF022900272021289
:1015C7004A90026DEEF0A3EFF0D39400EE94002260
:1015D7002406FEE034FF90026DF0A3CEF0229002C5
:1015E70063E02FFF900262E03E22121166AC00AD6D
:1015F70001AE02AF0322E0FEA3E0FFC394FAEE942C
:101607000022E0FEA3E0FFE4900264F0227452F0AF
:10161700A374A622900266E004F090027222FFF003
:10162700900258E0FEEF9E22900268E0FF9002676A
:09163700E022E47B0AFAF9F82232
:10548A007FCC1200867F331200867FC31200867F8C
:04549A003C0200864A
:10538800900255EFF07FAA1200867F701200869077
:0A5398000255E0FF12008602548A5D
:10429C0090029BEFF0A3ECF0A3EDF0A3EAF0A3EBFC
:1042AC00F07FAA1200867F7112008690029BE0FFBD
:1042BC0012008690029CE0FF12008690029C124332
:1042CC001C90029EE0FF12008690029E12431C90EE
:1042DC0002A0E0FF1200869002A01243239002A2DB
:1042EC00E0FF1200869002A21243239002A4E0FF8A
:1042FC001200869002A4A3E0FF1200869002A6E0B2
:10430C00FF1200869002A6A3E0FF12008602548AD8
:0E431C00A3E0FF12008622A3E0FF120086221B
:064056009002A31214AD5C
:10405C007FAA1200867F981200869002A7E0FF12BA
:10406C0000869002A7A3E0FF1200869002A9E0FF51
:10407C001200869002A9A31240DF7F811200869065
:10408C0002A6E0FF1200869002A3E0FF12008690C9
:10409C0002A41240DFE4FF120086E49002AEF0901E
:1040AC0002A5E0FF9002AEE0C39F50249002ABE06B
:1040BC00FBA3E0FAA3E0F9120FACFF12008690020A
:1040CC00ACE475F00112108D9002AEE004F080CFDC
:0340DC0002548A01
:0B40DF00E0FF120086E4FF12008622C2
:1038860090029BEFF0A3EDF0EBB40F00400302397A
:103896007D90389EF82828730238CB0238D7023834
:1038A600E30238EF0238FB02390702391302391FE7
:1038B60002392B02393702394302394C0239580290
:1038C600396302396E1212877452F0A37492023968
:1038D600771212877452F0A3749402397712128702
:1038E6007452F0A374960239771212877452F0A3B9
:1038F60074980239771212877452F0A3749A0239B7
:10390600771212877452F0A3749C023977121287C9
:103916007452F0A3749E0239771212877452F0A380
:1039260074A00239771212877452F0A374A2023976
:10393600771212877452F0A374A402397712128791
:103946001216140239771212877452F0A374A80261
:1039560039771212877452F0A374AA801412128750
:103966007452F0A374AC80091212877452F0A374D7
:08397600AEF07B011240562265
:0629760090027A1214AD7C
:10297C00E4900292F01212BB121166900288EBF0F6
:10298C00E41212BB121324900289EBF0E47B641264
:10299C0012BD12132490028AEBF0E47BE87A031246
:1029AC0012BE12132490028BEBF0E47B107A2712E8
:1029BC0012BE12132490028CEBF07BA07A86790164
:1029CC0078001212C012132490028DEBF07B407A27
:1029DC0042790F78001212C012132490028EEBF081
:1029EC007B807A96799878001212C0121324900288
:1029FC008FEBF090027EE0B408004003022A88902E
:102A0C002A12F8282873022A2A022A36022A42029B
:102A1C002A4E022A5A022A66022A72022A7E900240
:102A2C00907406F0A3740CF080529002907408F02D
:102A3C00A37410F08046900290740CF0A37418F0FC
:102A4C00803A9002907410F0A37420F0802E9002C3
:102A5C00907414F0A37428F080229002907418F0F3
:102A6C00A37430F08016900290741CF0A37438F0AC
:102A7C00800A9002907420F0A37440F090027AE0E7
:102A8C00FBC394FF5056900290E0FF900283E08FBE
:102A9C00F0A4FFA3E0FCA3E0FD2FFEEC35F09002C8
:102AAC00A0F0A3CEF0AF03C007900286E0FAA3E03B
:102ABC00FB900291E0FF7E00900286E0F8A3E02FED
:102ACC00FFEE381214E990028412150F900286E082
:102ADC00FFA3E0CF1214F5D00712429C1212C09043
:102AEC00029712124A900292E004F090029712128E
:102AFC00C312132790029712124A900297121419BC
:102B0C00D312120650DF900283E0FF900292E09FF6
:102B1C004002EFF090027BE0FF7011900284E0FD28
:102B2C00A3E0900293CDF0A3EDF08029EF900292F8
:102B3C00B401071214FDC31380031214FDFD7C00B5
:102B4C00121026900285E02FFF900284E03E900246
:102B5C0093F0A3EFF0900286E0FFA3E0900295CFF4
:102B6C00F0A3EFF0900292E014F090027DE0FD9063
:102B7C000292E02488F582E43402F583E0FB9002B3
:102B8C007EE090029EF0900293E0FFA3E090029F03
:102B9C00CFF0A3EFF0900295E0FFA3E09002A1CF5D
:102BAC00F0A3EFF090027CE0FF123886900290E0E8
:102BBC00FF900294E02FF0900293E03400F00000BC
:092BCC00900292E0D39400509BAA
:012BD50022DD
:061C8C009002531214AD9A
:101C9200900257E0B40B004003021D54901CA5F8BB
:101CA200282873021CC6021CD2021CE2021CEE028D
:101CB2001CFD021D08021D17021D22021D31021DFC
:101CC2003C021D4B90026A1212DF740CF0021D548A
:101CD20090026AE4F074081212E37410F0021D54C8
:101CE20090026A1212EA7418F0021D5490026AE419
:101CF200F074101212EE7420F0805790026A1213E0
:101D02000E7428F0804C90026AE4F07418121312D8
:101D12007430F0803D90026A1213197438F08032E8
:101D220090026AE4F0742012131D7440F080239034
:101D3200026A1213307450F0801890026AE4F07450
:101D4200301213347460F0800990026A1213B37473
:101D520070F090025A1212C31215C2E4900266F099
:101D620012161B1212C3121327121410D3121206C8
:101D720050EE900266E0A31216254005900267EE2F
:101D8200F090025E1212C31215C2E4900266F012C3
:101D9200161B1212C3121327121410D3121206505A
:101DA200EE900266E09002681216254005900268E5
:101DB200EEF012162FB50706900259E07057900206
:101DC20058E0FFE4FCFDFE1215C290026AE0FEA399
:101DD200E0FFE4FCFD90027212141E1210DB90026E
:101DE2006212149C900264E0FEA3E0FF90026DE098
:101DF2002FFF90026CE01214E8A3ECF0A3EDF09038
:101E020002641214F1900264E0FAA3E0FB90025320
:101E1200E0FF12429C900267E0900266F09002544A
:101E2200E0FB700B9002661214691215E58038EB24
:101E32006401702A900266E0F9FF900258E0900275
:101E42006A121569121026900263E02FFB9002625B
:101E5200E03EFAE912146AEF2BFFEE3A8009900293
:101E6200581214691215E590026EF0A3EFF0900279
:101E720064E0FFA3E0900270CFF0A3EFF090025A6B
:101E82001212C31215C290025E1212C3900276128F
:101E9200124A900266E014F012162FFEB507069061
:101EA2000259E0700890026974FFF08008900253B2
:101EB200E0900269F0EEB50734900259E0602E120C
:101EC20016399002761212C31215F1C004C005C071
:101ED20006C0071216399002721212C3121166D08E
:101EE20007D006D005D004C3121206603D900256F8
:101EF200E090027DF0900257E090027EF0121639D7
:101F02009002721212C31215F112148F90026E1205
:101F1200151C9002701213A6900255E0FB90025419
:101F2200E0FD900269E0FF1229769002721212C35C
:101F32001213271215C29002761212C3121327909F
:101F4200027612124A90026AE0FEA3E0FFC39002F8
:101F52006FE09FF090026EE09EF00000900266E05B
:081F6200D394004003021E9419
:011F6A002254
:06248C0090025B1214AD8A
:10249200900266E0FFA3E090026ECFF0A3EFF0900F
:1024A2000268E0FFA3E0900270CFF0A3EFF0900289
:1024B2005EE0FEB40B00400302256B9024C4F828B2
:1024C20028730224E50224F102250102250D0225CA
:1024D2001802252302253202253D022548022553F2
:1024E20002256290026A1212DF740CF002256B90D0
:1024F200026AE4F074081213B77410F002256B90AC
:10250200026A1212EA7418F002256B90026A12141F
:10251200057420F0805390026A12130E7428F08022
:102522004890026AE4F074181214097430F0803989
:1025320090026A1213197438F0802E90026A1214F3
:10254200447440F0802390026A1213307450F08079
:102552001890026AE4F074301214487460F0800932
:1025620090026A1213B37470F090025FE0600D90F3
:102572000263E09002601214B66F600F90025C1268
:102582001536A3EEF09002601226AE1212F5600F1D
:10259200900263E090026012147CE5F06F60091211
:1025A20013BE90026012266E1212F5701312159A63
:1025B20090026E1213E3121588CE1212B31226ED98
:1025C2001212F56014900264E075F00A84FF900222
:1025D20061E075F00A846F60091213BE9002611205
:1025E20026AE1212F56017900264E075F00A84AF0D
:1025F200F0900261E075F00A84E5F06F6009121351
:10260200BE90026112266E1212F5701412159A9083
:10261200026E1213E3121588A3CE1212B41226ED23
:102622001212F5600D900265E09002621214B66F0C
:1026320060121213BE900262E075F00A84FF121358
:10264200841226FF1212F5600F900265E09002627A
:1026520012147CE5F06F60131213BE900262E075F3
:0B266200F00A84AFF01213841226FF70
:10266D0022E075F00A84AFF0E4FCFDFE90027F12CB
:10267D00124A9002837401F090026EE0FFA3E09085
:10268D000284CFF0A3EFF0900270E0FFA3E0900280
:10269D0086CFF0A3EFF090025BE0FF7D011229766B
:1026AD0022E075F00A84FFE4FCFDFE90027F121219
:1026BD004A9002837401F090026EE0FFA3E0900255
:1026CD0084CFF0A3EFF0900270E0FFA3E0900286BC
:1026DD00CFF0A3EFF090025BE0FF7D01122976228F
:1026ED007452F0A374B0F090025CE0FF7B011240D5
:0D26FD00562290025BE0FF7D01122976223B
:061970009002541214ADB8
:10197600A3E0B40B004003021A26901987F8282822
:10198600730219A80219B40219C00219CC0219D798
:101996000219E20219F10219FC021A07021A1202CE
:1019A6001A1D9002651212DF740CF0021A269002BC
:1019B600651214D57410F0021A269002651212EA06
:1019C6007418F0021A269002651214057420F0802D
:1019D6004F90026512130E7428F08044900265E45D
:1019E600F074181214D97430F08035900265121311
:1019F600197438F0802A9002651214447440F080FD
:101A06001F9002651213307450F080149002651214
:101A160015A67460F080099002651213B37470F015
:101A26009002591215FD50089002631215B18010EC
:101A36009002637401F090025AE09002591215D791
:101A460090026DE0FFA3E0A3CFF0A3EFF0E4FB0B61
:101A560090026D1212D31215C850F4900261EBF089
:101A6600940340037403F090025B1215FD50089036
:101A760002641215B180109002647401F090025C49
:101A8600E090025B1215D790026DE0FFA3E0900292
:101A960071CFF0A3EFF0E4FB0B90026D1212D3129C
:101AA60015C850F4900262EBF0940340037403F0FF
:101AB600900258E0600C1214C1B507061214CB6FE1
:101AC600603A9002651215807D0512102690025D1F
:101AD60012149C90025FE0FAA3E0FB90025FE0FE26
:101AE600A3E09002671214E090025D12150F9002B7
:101AF6005F1214F1900254E0FF12429C900263E0E0
:101B0600FD701E900261E0B4030D90025DE0FFA33C
:101B1600E0900269CF802C12153FE03E900269806A
:101B260022900261E0B4030512153F801190025D18
:101B3600E0FEA3E0FF900266E02FFF900265E03E24
:101B4600900269F0A3EFF090025FE0FFA3E090023D
:101B56006BCFF0A3EFF0ED702A900258E0600C1204
:101B660014C1B507061214CB6F60151213D290027A
:101B76006B1212A97452F0A374B2F07B0112405694
:101B86001213F0900261E0FFC3940340459002589F
:101B9600E06031900264E0FE900263E0B5062590B5
:101BA6000262E0FEEFB5061C9002717D641212D54A
:101BB600AA06AB0712157D7D64121038EF6B700212
:101BC600EE6A600B12157D7D6412133B12297612A4
:101BD60013F0900258E060271214C16F702112149E
:101BE600CBB5071B90027112142D121038AA06AB42
:101BF6000712142A121038EF6B7002EE6A6009128F
:101C0600142A12133B1229761213F0900258E06040
:101C16000C1214C1B507061214CB6F60121213D240
:101C260090026B1212A9121614F07B011240561282
:101C360013F0900258E060201214C1B5071A12146E
:101C4600CBB507149002711212D390026F1212CF05
:101C5600ED6B7002EC6A602D9002551215369002FB
:101C660057E090027EF090026F1212D31214889001
:101C7600026912151C90026B1213A6900254E0FF23
:051C86007D011229762A
:011C8B002236
:061640009002551214ADEA
:10164600900259E0B40B0040030216F8901659F8C0
:1016560028287302167A02168602169202169E022F
:1016660016A90216B40216C30216CE0216D902161F
:10167600E40216EF9002681212DF740CF00216F8FC
:101686009002681214D57410F00216F890026812CF
:1016960012EA7418F00216F8900268121405742003
:1016A600F0804F90026812130E7428F08044900266
:1016B60068E4F074181215AA7430F0803590026848
:1016C6001213197438F0802A900268121444744078
:1016D600F0801F9002681213307450F0801490024C
:1016E600681215A67460F080099002681213B3742C
:1016F60070F090025AE0C3940250037402F0900214
:101706005AE004F090025C121609900264E004F0BC
:10171600121462D3EF9400EE940050EEE0FDA3F0B5
:1017260090025AE0FCED9C4007900265ECF0800CBC
:10173600900265E0D3940250037402F0900265E0D3
:1017460004F090025E121609900264E004F012148E
:1017560062D3EF9400EE940050EEE0FF900266F044
:1017660090025AE0FEEF9E4007900266EEF0800C73
:10177600900266E0D3940250037402F0900266E091
:1017860004F090025BE060061215296F603C90023F
:101796005AE0FF7E009002681214749002601214E0
:1017A6009C900262E0FAA3E0FB900262E0FEA3E0F6
:1017B60090026A1214E090026012150F90026212F3
:1017C60014F1900255E0FF12429C900256E0FF7021
:1017D60011900260E0FDA3E090026CCDF0A3EDF065
:1017E600803AEF900265B4010EE0FF90025AE09055
:1017F60002681215698010E0FF90025AE0900268B4
:10180600121506FCA3E0FD121026900261E02FFFE0
:10181600900260E03E90026CF0A3EFF0900262E06E
:10182600FFA3E090026ECFF0A3EFF0A3E4F0A304D1
:10183600F0900265E014900264F0900264E0D394A4
:1018460001401B9002701215807D0A12102690022C
:1018560070EEF0A3EFF0900264E014F080DC9002EA
:1018660065E0900267F0900267E0D39402500302AD
:1018760018F890025BE06025121529B5071F900243
:1018860070E0FCA3E090025E1212C812145FAA0474
:10189600AB0512144FED6B7002EC6A603B12144FED
:1018A600AE04AF05E4FCFD90027F12124A90025589
:1018B600E0FF121533900259E090027EF012149563
:1018C60090026CE0FDA3E0900284CDF0A3EDF090D1
:1018D600026E1213751229769002701212D39002BC
:1018E60070EEF0A3EFF0121554900267E014F002C8
:1018F600186C90025BE060061215296F601E90025C
:1019060057E0FFA312159D90026C1213E390026E2E
:101916001212A9121614F07B011240561215549099
:10192600025BE0601A121529B5071490025E1212C6
:10193600D390025C1212CFED6B7002EC6A602A1231
:101946001533900259E090027EF090025C1212D399
:1019560012148890026C12151C90026E1213A69037
:091966000255E0FF7D0112297613
:01196F002255
:103FC1007403F0A304F0A304F0A304F0A304F0A38A
:103FD10004F0229002ED12124A9002EDE0FCA3E0FF
:103FE100FDA3E0FEA3E0FF78081212179002ED1284
:103FF100124A9002EDE0F8A3E0F9A3E0FAA3E0FB96
:1040010022E4F0A3EFF0E0F8E4F0E822E024C9F5BF
:1040110082E43402F58322E024D3F582E43402F50C
:1040210083224FFFEEF0FEA3EFF04E22EFF075F08A
:1040310005A4229002C4F0900253E0FF22900244B2
:10404100E0FFC322900244E0FFC322EB4FFFEAFEF0
:05405100E9FDE8FC227E
:0C554700E4FFFE1251DDEF24FF9204226D
:034F6D009002535C
:104F700012402D04FF7E001251DDEF124034B403C5
:104F8000149002C4E0FE6005D39406401B9002C456
:104F90007401F080109002C4E06005D3940A4008C8
:084FA000740112403412550D9A
:014FA80022E6
:10550D00EF75F005A404FF7E009002C4E0FD025289
:01551D00028B
:0350C50090025303
:1050C80012402D2402FF7E001251DD9002C5EFF040
:1050D8006006E0D39412400E9002C57403F090026B
:0650E80053E0FF1254D753
:0150EE00229F
:1054D700EF75F005A42402FF7E009002C5E0FD02EF
:0254E70052026F
:0348980090025338
:10489B0012402D2403FFA3F07E001251DD9002D9AC
:1048AB001240029002D9F0900254E02401FFE4334D
:1048BB00FE1251DD9002D9E0FEA3E09002D9124026
:1048CB0023601B9002D9E0FEA3E0FFD39410EE947B
:1048DB0027500B7C007D64121038ED4C6012900257
:1048EB00D97409F0A374C4F0900253E0FF1251681D
:0148FB00229A
:10516800EF75F005A42403FF900255F07E0090022D
:10517800D9E0FD125202900255E02401FFE433FE0B
:085188009002DAE0FD02520280
:03524B009002537B
:10524E0012402D2405FF7E001251DD9002C6EFF0B4
:10525E00D39404400B7401F0900253E0FF1254E912
:01526E00221D
:1054E900EF75F005A42405FF7E009002C6E0FD02D9
:0254F90052025D
:1052F600900252EFF0124F6D900252E0FF1250C52D
:10530600900252E0FF124898900252E0FF02524B80
:05544800900246EFF0A8
:10544D002434FF7E001251DD90024612400DEFF024
:01545D00222C
:0254B100AD0745
:1054B300ED2434FF7E0074C92D124010E0FD02522A
:0154C30002E6
:1040EA00E4900245F0900244F012403E940A50597E
:1040FA00125448900244E0FF701074C92F12401005
:10410A00E0703E90024504F0803F12403E94095010
:10411A0018E0FE12400EE0FD74C82EF582E4340267
:10412A00F583E0D39D401A8010EFB409149002443D
:10413A0012400DE0D3941940089002457401F080B2
:10414A0008900244E004F080A0900245E064017007
:10415A00209002C9123FC1123FC7E4900244F012F4
:10416A00403E940A500B1254B1900244E004F0808D
:01417A00EE56
:01417B002221
:05545E00900246EFF092
:10546300243EFF7E001251DD900246124018EFF0F9
:015473002216
:0254C400AD0732
:1054C600ED243EFF7E0074D32D12401BE0FD0252F8
:0154D60002D3
:10420D00E4900245F0900244F01240459406505956
:10421D0012545E900244E0FF701074D32F12401BB5
:10422D00E0703E90024504F0803F124045940550E9
:10423D0018E0FE124019E0FD74D22EF582E434022E
:10424D00F583E0D39D401A8010EFB405149002441D
:10425D00124018E0D3941940089002457401F08083
:10426D0008900244E004F080A0900245E0640170E3
:10427D001D9002D3123FC1E4900244F012404594C8
:0E428D0006500B1254C4900244E004F080EE80
:01429B002200
:104CFF007F447E001251DD9002B21240029002B248
:104D0F00F07F457E001251DD9002B2E0FEA3E090ED
:104D1F0002B2124023600CD3E094AC9002B2E09444
:104D2F0026400D9002B27405F0A3746EF0120003CA
:014D3F002251
:100003009002B2E0FD7F447E001252029002B3E000
:08001300FD7F457E0002520250
:1053EC007F467E001251DD9002AFEFF0D394014066
:0753FC0005E4F012555322F5
:0C5553009002AFE0FD7F467E0002520295
:104C7C007F477E001251DD9002B01240029002B0CC
:104C8C00F07F487E001251DD9002B0E0FEA3E04FB1
:104C9C00FF9002B0124025600CC3E094649002B007
:104CAC00E09400400C9002B0E4F0A3741EF0125398
:024CBC00BC2218
:1053BC009002B0E0FD7F477E001252029002B1E0F5
:0853CC00FD7F487E0002520241
:105403007F497E001251DD9002F1EFF0D394014009
:0754130005E4F012555F22D1
:0C555F009002F1E0FD7F497E0002520244
:104C39007F4A7E001251DD9002F21240029002F288
:104C4900F07F4B7E001251DD9002F2E0FEA3E04FAF
:104C5900FF9002F2124025600CC3E094B69002F274
:104C6900E09403400D9002F27403F0A37420F01253
:034C790053D422EF
:1053D4009002F2E0FD7F4A7E001252029002F3E056
:0853E400FD7F4B7E0002520226
:10541A007F4C7E001251DD9002F7EFF0D3940140E9
:07542A0005E4F012556B22AE
:0C556B009002F7E0FD7F4C7E000252022F
:104763007F4D7E001251DDE4FCFDFE123FD4C000FC
:10477300C001C002C0037F4E7E001251DDD003D0C2
:1047830002D001D00012404C123FD4C000C001C07F
:1047930002C0037F4F7E001251DDD003D002D0014F
:1047A300D00012404C9002ED12124A7F807E847D2D
:1047B3001E7C00123FF3D3121206400D9002ED123D
:0A47C3001256001E8480124AB12233
:104AB100E4FBFA7901F89002EDE0FCA3E0FDA3E04C
:104AC100FEA3E0FF121166AD077F4D7E0012520278
:104AD1009002EDA3A3E0FEA3E0FFE4FDFCFB7A015D
:104AE100F9F8121166AD077F4E7E00125202900254
:104AF100EDE0FCA3A3A3E0FFE4AD077F4FFE02526C
:014B010002B1
:105190007F02122DB790025212124AE4FFFE7D20C8
:1051A0007C41900252E0F8A3E0F9A3E0FAA3E0FB0F
:0651B000120CDA120F2BB5
:0151B60022D6
:0929680041033400420332000077
:06558E00A2A2E433FF229B
:06559400A2B4E433FF2283
:04004F001255942290
:1043B600900334E01460241460682402707112556E
:1043C6008EEF706B900317A3A3E0FFA3E090033278
:1043D600CFF0A3EFF0A37401F08054900332E0FE17
:1043E600A3E0FBAA06900317E0FCA3E0FDA3E0FE12
:1043F600A3E0C39BFFEE9AFEED9400FDEC9400FC57
:10440600E47B14FAF9F8C3121206500E12558EEF19
:1044160070189003347402F0801512558EBF010F88
:10442600800812558EEF7002FF22E4900334F07F6D
:014436000184
:014437002262
:042971004102FA0025
:10417C00EFF0E47BE87A03F9F8900257E0FCA3E057
:10418C00FDA3E0FEA3E0FF22E0FFE4FCFDFE9002B5
:10419C005E12124A900262E4F074E1A3F0A3E4F020
:1041AC00A322AE079002C7E02402FF2290025E1207
:1041BC00124A900262E4F074C5A3F0A37401F0A358
:1041CC0022E4900256F0A37406F0A3229002D9E0E8
:1041DC00FEA3E0FFE4FCFD22E0FFE4FCFDFE900208
:1041EC005A02124A121166E47B107A0EF9F8021187
:1041FC00667403F0A3EEF022E47B3CFAF9F80211AA
:01420C00664B
:104DFD001241B09002A07404F0A374FFF0A37402EA
:104E0D00F074D21241C574D4F0E4A3F0A3F0FBFA10
:104E1D007DD47C0112429C124BA17F011237777F0A
:0E4E2D00011250447F0112001E7F01024FE16E
:02377700AE079B
:103779009002C7E0FF2402FDEF640370519002C478
:10378900E024FE601C14602214602814602E14606A
:10379900342405600302385B9002527405F0023844
:1037A9005B900252740AF002385B900252740FF077
:1037B90002385B9002527414F002385B9002527422
:1037C90019F002385B900252741EF002385B9002C5
:1037D900C4E014B40A00507A9037EF75F003A4C519
:1037E9008325F0C5837302380D02381502381D028E
:1037F900382502382D02383502383D02384502385D
:103809004D0238559002527432F08046900252743B
:103819003CF0803E9002527446F080369002527419
:1038290050F0802E900252745AF080269002527401
:1038390064F0801E9002527482F0801690025274D5
:1038490096F0800E90025274B4F080069002527481
:10385900C8F0AF05C0071241CD1241FD90025212C6
:1038690041E49002FA124194747BF0D007E4FB7DA5
:0C38790001121C8C900252E09002FAF048
:013885002220
:105044001241AEC0071241CD1241FD9002C512417A
:10505400E49002FB12419474F3F0D007E4FB7D0169
:0B506400121C8C9002C5E09002FBF0D3
:01506F00221E
:10001E001241AEC0071241CD14F0A3EEF01241D83A
:10002E001241EA9002FC1241881241B87469F0D074
:10003E0007E4FB7D01121C8C1241D89002FC0212C7
:01004E004A67
:104FE1001241AEC0071241CD14F0A3EEF09002DBE6
:104FF1001241DB1241EA9003001241881241B87458
:10500100E3F0D007E4FB7D01121C8C9002DB12411E
:07501100DB90030002124ACC
:104B52001241AEE4900258F0A304F0A31241FD907A
:104B620002B4E0FDA3E090025CCDF0A3EDF090036F
:104B720004E0FDA3E090025ECDF0ED1241A7743295
:104B8200F0A3E4F0A3740AF07BF87D0112164090C2
:0E4B920002B4E0FFA3E0900304CFF0A3EFF025
:014BA00022F2
:053BE400900252EFF019
:103BE9009002C7E02402900253F09002DD1241884E
:103BF90090025712124A12417E1241F09002541259
:103C0900417C1241F0AC00AD01AE02AF0312420497
:103C190090025512417C121166124204AF039002C0
:103C290056EFF0FE900253E0FF90025E7403F090AD
:103C39000252E090025FF0900254E0900260F0902E
:103C49000255E0900261F0A3EEF0900306E09002C5
:103C590063F0900307E0900264F0900308E090029B
:103C6900651241C6740EF0A37402F0A374ECF07BE4
:103C7900FF7DFF12248C900254E0900306F090021D
:0E3C890055E0900307F0900256E0900308F01B
:013C9700220A
:0849B400900252ECF0A3EDF0BB
:1049BC001241AE9002577401F0A3EEF0900252E057
:1049CC00FDA3E0900259CDF0A3EDF0900309E0FDBA
:1049DC00A3E090025BCDF0A3EDF0A3E4F0A374BED2
:1049EC00F0A3E4F0A3740AF0E4FB7DF812197090C4
:0E49FC000252E0FFA3E0900309CFF0A3EFF01A
:014A0A002289
:104438009002A07401F074F4A3F0A37401F0745E08
:10444800A3F0A37401F0A37486F0A3E4F0A374E1CD
:10445800F0229002A07404F0A3748FF0A37403F008
:10446800A3741FF0A37404F0741CA3F0A37402F0E7
:10447800A3229002A07401F0A32274D3F0FB7A0265
:104488007D1C7C0422746CF0FB7A027D4B7C00223C
:1044980074B7F0A3E4F0A3744B227B017A007F1F6A
:0F44A800229002A07403F0227D017C007F20226D
:1051B7009002C7E02402900252F0EF700A12445A9C
:1051C7001244827F0C800B900252E0FF12445A1265
:0551D700448212429C1D
:0151DC0022B0
:104E3B009002C7E02402900252F0EF70179002A08C
:104E4B0004F074AE12447212449812447312448DDF
:104E5B007F0C8016900252E0FF12447A74AE12441B
:0D4E6B007312449812447312448D12429C3D
:014E78002217
:104BA1009002C6E0FE2417900252F0EE14600F143A
:104BB100600C1460091460062404703080009002B7
:104BC10052E0FF9002A07402F0A3746CF0A374038E
:104BD100F0A3741FF0A37401F0A374D5124473748D
:0C4BE100D3F0FB7A027DD57C0112429CCF
:014BED0022A5
:0D552D001244387D017C001244A202429C11
:105335001244A9A374E9F0A37402F074BD124448A1
:0D5345007B607A017DF67C017F1F02429C97
:1054FB001244A974E91244407DF67C011244A202C5
:02550B00429CC0
:1053A20012447A74F412447374BD1244497B607AD5
:0A53B200017D017C007F1F02429C78
:0D553A001244387B017A001244B002429CFA
:1054310012447A74F412447374BD1244497B607A45
:07544100011244B002429C7D
:105474001244A9A374E91244417B017A007DF67CAD
:06548400017F2002429CA2
:104FA900E47F64FEFDFC9002BAE0F8A3E0F9A3E017
:104FB900FAA3E0FB1210DBC006C0079002B2E0FEC4
:104FC900A3E0FBAA06E4F9F8D007D006121166900F
:084FD90002B4E4F0A3EFF022A2
:10526F009002C7E0B40306A37406F080069002C84C
:10527F00740AF09002C8E0FF9002C4E0D39F40028E
:03528F00EFF0221B
:100BE200020F97E86480F8E933E83360110460F09B
:100BF200ED33EC337009E8FCE9FDEAFEEBFF220479
:100C020060DED3EB9FEA9EE99DE8C2E78CF0C2F773
:100C120095F0400CE8CCF8E9CDF9EACEFAEBCFFB3F
:100C2200120F6285D0F05804700320D5B3E8047027
:100C3200075002B2D5020FA192D5EC0460F7E4CCC2
:100C4200C0E0C398F8603B94186008400DD0E0FB08
:100C5200020F79E4FBFAC9FC8028E830E406E4C913
:100C6200FBE4CAFCE830E305E4C9CACBFCE854075C
:100C72006010F8C3E913F9EA13FAEB13FBEC13FC67
:100C8200D8F130F52FC3E49CFCEF9BFFEE9AFEED0A
:100C920099FDD0E0FBEF4E4D4C701222DB03020FA8
:100CA2009EEC2CFCEF33FFEE33FEED33FDED30E72F
:100CB200EB020F79EF2BFFEE3AFEED39FDD0E0FBB0
:100CC20050130BBB0003020FA1ED13FDEE13FEEF59
:080CD20013FFEC13FC020F7983
:100CDA00EC4D6011E8497017ED33EC3304600DE414
:100CEA00FCFFFEFD22E933E8330470F8020F971285
:100CFA000F6258046009E4CC248150062850090286
:100D0A000FA1284003020F9EC0E0EB4A7044B9804D
:100D1A0006D0E0FB020F8DEF4E701CBD8008EBFF82
:100D2A00EAFEE9FD80EBE98DF0A4FEE5F0020DC3D1
:100D3A00E9CDF9EAFEEBFFEF89F0A4FCE5F0CE89F4
:100D4A00F0A42EFFE435F0CD89F0A42DFEE435F0B1
:100D5A008067EF4E7005BD80D780C3EF8BF0A4ACDF
:100D6A00F0EE8BF0A42CFCE435F0F8EF8AF0A42C1A
:100D7A00E5F038FCE433CB8DF0A42CFCE5F03BF82D
:100D8A00EE8AF0A42CFCE5F038F8E433CF89F0A41D
:100D9A002CFCE5F038CF3400CE89F0A42FFFE5F023
:100DAA003EFEE433C98DF0A42EFEE5F039CD8AF07B
:100DBA00A42FFFE5F03EFEE43DFD33D0E0FB5007F3
:100DCA000BBB000F020FA1EC2CFCEF33FFEE33FE3E
:060DDA00ED33FD020F796C
:100DE000020FA1EC5D046005E859047003020F973F
:100DF000120F62580460F6EC4860F2EC7004FDFEDD
:100E0000FF22C860DB2481C85009C39860025006E5
:100E1000020F9E9850CAF582E9294B4A7005AB82B1
:100E2000020F8D75F0007C1A7880C3EF9BEE9AED6F
:100E300099400DC3EF9BFFEE9AFEED99FDE842F05D
:100E4000DC23ACF0D0E0FFD0E0FED0E0FDAB8220B0
:100E5000E7101BEB60BAEC2CFCEF33FFEE33FEED3A
:100E600033FD020F79E803F830E705C0F075F000B4
:100E7000EF2FFFEE33FEED33FD40B830E7C280AA1E
:100E800074F8CC6480CCC86480C8F582046043C325
:100E9000EB9FF5F0EA9E42F0E99D42F0E89C45F0B8
:100EA00060305018E5825FFFE582F42B5582FB50DD
:100EB000210ABA001D09B90019088016E5825BFBFA
:100EC000E582F42F5582FF50090EBE00050DBD00CE
:100ED000010CC3EB9FF5F0EA9E42F0E99D42F0E879
:0D0EE0009C45F06007CC4820E701B3EC22F0
:100EED0075F020800E75F010800575F0087D007E80
:100EFD00007F003392D530D5031211F8EC3340103A
:100F0D00EF33FFEE33FEED33FDEC33FCD5F0ED2288
:0E0F1D00E5F0247EA2D513CC92E7CDCEFF22C4
:100F2B00EDD2E7CD33EC3392D524814006E4FFFEBE
:100F3B00FDFC22FCE4CFCECDCC24E0501174FF801D
:100F4B00EDC3CC13CCCD13CDCE13CECF13CF0470BA
:070F5B00F030D5DE0211F8B1
:100F6200E9D2E7C933E833F892D5EDD2E7CD33ECD5
:070F720033FC5002B2D5224E
:100F7900EC30E7100FBF000C0EBE00080DBD0004D9
:100F89000BEB6014A2D5EB13FCED92E7FD2274FF85
:100F9900FCFDFEFF22E480F8A2D574FF13FC7D80DE
:030FA900E480EFF2
:0300000002432A8E
:0C432A00787FE4F6D8FD75812002437115
:100FAC00BB010689828A83E0225002E722BBFE0243
:090FBC00E32289828A83E4932276
:100FC500BB010CE58229F582E5833AF583E02250E1
:100FD50006E92582F8E622BBFE06E92582F8E2222B
:0D0FE500E58229F582E5833AF583E4932245
:100FF200BB010689828A83F0225002F722BBFE01DE
:02100200F322D7
:10100400F8BB010DE58229F582E5833AF583E8F022
:10101400225006E92582C8F622BBFE05E92582C8CE
:02102400F222B6
:10102600EF8DF0A4A8F0CF8CF0A428CE8DF0A42EDE
:02103600FE2298
:10103800BC000BBE0029EF8DF084FFADF022E4CC9C
:10104800F875F008EF2FFFEE33FEEC33FCEE9DEC65
:10105800984005FCEE9DFE0FD5F0E9E4CEFD22EDAB
:10106800F8F5F0EE8420D21CFEADF075F008EF2FF5
:10107800FFED33FD4007985006D5F0F222C398FDE6
:051088000FD5F0EA2283
:10108D00C5F0F8A3E028F0C5F0F8E58215827002EE
:06109D001583E038F0228B
:1010A300BB0110E58229F582E5833AF583E0F5F08B
:1010B300A3E0225009E92582F886F008E622BBFE68
:1010C3000AE92582F8E2F5F008E222E5832AF583AE
:0810D300E993F5F0A3E9932273
:1010DB00E88FF0A4CC8BF0A42CFCE98EF0A42CFCB4
:1010EB008AF0EDA42CFCEA8EF0A4CDA8F08BF0A432
:1010FB002DCC3825F0FDE98FF0A42CCD35F0FCEB91
:10110B008EF0A4FEA9F0EB8FF0A4CFC5F02ECD3955
:0F111B00FEE43CFCEAA42DCE35F0FDE43CFC22C2
:10112A0075F008758200EF2FFFEE33FECD33CDCC7C
:10113A0033CCC58233C5829BED9AEC99E5829840FF
:10114A000CF582EE9BFEED9AFDEC99FC0FD5F0D6DC
:10115A00E4CEFBE4CDFAE4CCF9A88222B800C1B906
:10116A000059BA002DEC8BF084CFCECDFCE5F0CB44
:10117A00F97818EF2FFFEE33FEED33FDEC33FCEB7D
:10118A0033FB10D703994004EB99FB0FD8E5E4F938
:10119A00FA227818EF2FFFEE33FEED33FDEC33FC25
:1011AA00C933C910D7059BE99A4007EC9BFCE99A19
:1011BA00F90FD8E0E4C9FAE4CCFB2275F010EF2F5E
:1011CA00FFEE33FEED33FDCC33CCC833C810D7075E
:1011DA009BEC9AE899400AED9BFDEC9AFCE899F899
:0E11EA000FD5F0DAE4CDFBE4CCFAE4C8F9222C
:0E11F800C3E49FFFE49EFEE49DFDE49CFC2208
:10120600EB9FF5F0EA9E42F0E99D42F0E89C45F03E
:0112160022B5
:10121700E8600FEFC333FFEE33FEED33FDEC33FC35
:03122700D8F122D9
:10122A00E493FC740193FD740293FE740393FF220A
:10123A00E493F8740193F9740293FA740393FB220A
:0C124A00ECF0A3EDF0A3EEF0A3EFF02217
:10125600A8828583F0D083D08212126D12126D128D
:10126600126D12126DE473E493A3C583C5F0C583B2
:10127600C8C582C8F0A3C583C5F0C583C8C582C8E2
:011286002245
:10433600023F2CE493A3F8E493A34003F68001F232
:1043460008DFF48029E493A3F85407240CC8C33388
:10435600C4540F4420C8834004F456800146F6DF57
:10436600E4800B010204081020408090270AE47EB6
:10437600019360BCA3FF543F30E509541FFEE4934C
:10438600A360010ECF54C025E060A840B8E493A313
:10439600FAE493A3F8E493A3C8C582C8CAC583CA3E
:1043A600F0A3C8C582C8CAC583CADFE9DEE780BEF6
:012975000061
:00000001FF
